{
  "contractName": "SimpleContract",
  "abi": [
    {
      "inputs": [
        {
          "internalType": "string",
          "name": "tokenData",
          "type": "string"
        }
      ],
      "stateMutability": "nonpayable",
      "type": "constructor"
    },
    {
      "inputs": [],
      "name": "ApprovalCallerNotOwnerNorApproved",
      "type": "error"
    },
    {
      "inputs": [],
      "name": "ApprovalQueryForNonexistentToken",
      "type": "error"
    },
    {
      "inputs": [],
      "name": "BalanceQueryForZeroAddress",
      "type": "error"
    },
    {
      "inputs": [],
      "name": "MintERC2309QuantityExceedsLimit",
      "type": "error"
    },
    {
      "inputs": [],
      "name": "MintToZeroAddress",
      "type": "error"
    },
    {
      "inputs": [],
      "name": "MintZeroQuantity",
      "type": "error"
    },
    {
      "inputs": [],
      "name": "OwnerQueryForNonexistentToken",
      "type": "error"
    },
    {
      "inputs": [],
      "name": "OwnershipNotInitializedForExtraData",
      "type": "error"
    },
    {
      "inputs": [],
      "name": "TransferCallerNotOwnerNorApproved",
      "type": "error"
    },
    {
      "inputs": [],
      "name": "TransferFromIncorrectOwner",
      "type": "error"
    },
    {
      "inputs": [],
      "name": "TransferToNonERC721ReceiverImplementer",
      "type": "error"
    },
    {
      "inputs": [],
      "name": "TransferToZeroAddress",
      "type": "error"
    },
    {
      "inputs": [],
      "name": "URIQueryForNonexistentToken",
      "type": "error"
    },
    {
      "anonymous": false,
      "inputs": [
        {
          "indexed": true,
          "internalType": "address",
          "name": "owner",
          "type": "address"
        },
        {
          "indexed": true,
          "internalType": "address",
          "name": "approved",
          "type": "address"
        },
        {
          "indexed": true,
          "internalType": "uint256",
          "name": "tokenId",
          "type": "uint256"
        }
      ],
      "name": "Approval",
      "type": "event"
    },
    {
      "anonymous": false,
      "inputs": [
        {
          "indexed": true,
          "internalType": "address",
          "name": "owner",
          "type": "address"
        },
        {
          "indexed": true,
          "internalType": "address",
          "name": "operator",
          "type": "address"
        },
        {
          "indexed": false,
          "internalType": "bool",
          "name": "approved",
          "type": "bool"
        }
      ],
      "name": "ApprovalForAll",
      "type": "event"
    },
    {
      "anonymous": false,
      "inputs": [
        {
          "indexed": true,
          "internalType": "uint256",
          "name": "fromTokenId",
          "type": "uint256"
        },
        {
          "indexed": false,
          "internalType": "uint256",
          "name": "toTokenId",
          "type": "uint256"
        },
        {
          "indexed": true,
          "internalType": "address",
          "name": "from",
          "type": "address"
        },
        {
          "indexed": true,
          "internalType": "address",
          "name": "to",
          "type": "address"
        }
      ],
      "name": "ConsecutiveTransfer",
      "type": "event"
    },
    {
      "anonymous": false,
      "inputs": [
        {
          "indexed": true,
          "internalType": "address",
          "name": "previousOwner",
          "type": "address"
        },
        {
          "indexed": true,
          "internalType": "address",
          "name": "newOwner",
          "type": "address"
        }
      ],
      "name": "OwnershipTransferred",
      "type": "event"
    },
    {
      "anonymous": false,
      "inputs": [
        {
          "indexed": true,
          "internalType": "address",
          "name": "from",
          "type": "address"
        },
        {
          "indexed": true,
          "internalType": "address",
          "name": "to",
          "type": "address"
        },
        {
          "indexed": true,
          "internalType": "uint256",
          "name": "tokenId",
          "type": "uint256"
        }
      ],
      "name": "Transfer",
      "type": "event"
    },
    {
      "inputs": [],
      "name": "MAX_MINTS_WALLET",
      "outputs": [
        {
          "internalType": "uint256",
          "name": "",
          "type": "uint256"
        }
      ],
      "stateMutability": "view",
      "type": "function"
    },
    {
      "inputs": [],
      "name": "MAX_SUPPLY",
      "outputs": [
        {
          "internalType": "uint256",
          "name": "",
          "type": "uint256"
        }
      ],
      "stateMutability": "view",
      "type": "function"
    },
    {
      "inputs": [
        {
          "internalType": "address",
          "name": "to",
          "type": "address"
        },
        {
          "internalType": "uint256",
          "name": "tokenId",
          "type": "uint256"
        }
      ],
      "name": "approve",
      "outputs": [],
      "stateMutability": "payable",
      "type": "function"
    },
    {
      "inputs": [
        {
          "internalType": "address",
          "name": "owner",
          "type": "address"
        }
      ],
      "name": "balanceOf",
      "outputs": [
        {
          "internalType": "uint256",
          "name": "",
          "type": "uint256"
        }
      ],
      "stateMutability": "view",
      "type": "function"
    },
    {
      "inputs": [
        {
          "internalType": "uint256",
          "name": "tokenId",
          "type": "uint256"
        }
      ],
      "name": "getApproved",
      "outputs": [
        {
          "internalType": "address",
          "name": "",
          "type": "address"
        }
      ],
      "stateMutability": "view",
      "type": "function"
    },
    {
      "inputs": [
        {
          "internalType": "address",
          "name": "owner",
          "type": "address"
        },
        {
          "internalType": "address",
          "name": "operator",
          "type": "address"
        }
      ],
      "name": "isApprovedForAll",
      "outputs": [
        {
          "internalType": "bool",
          "name": "",
          "type": "bool"
        }
      ],
      "stateMutability": "view",
      "type": "function"
    },
    {
      "inputs": [],
      "name": "isSaleOpen",
      "outputs": [
        {
          "internalType": "bool",
          "name": "",
          "type": "bool"
        }
      ],
      "stateMutability": "view",
      "type": "function"
    },
    {
      "inputs": [],
      "name": "name",
      "outputs": [
        {
          "internalType": "string",
          "name": "",
          "type": "string"
        }
      ],
      "stateMutability": "view",
      "type": "function"
    },
    {
      "inputs": [],
      "name": "owner",
      "outputs": [
        {
          "internalType": "address",
          "name": "",
          "type": "address"
        }
      ],
      "stateMutability": "view",
      "type": "function"
    },
    {
      "inputs": [
        {
          "internalType": "uint256",
          "name": "tokenId",
          "type": "uint256"
        }
      ],
      "name": "ownerOf",
      "outputs": [
        {
          "internalType": "address",
          "name": "",
          "type": "address"
        }
      ],
      "stateMutability": "view",
      "type": "function"
    },
    {
      "inputs": [],
      "name": "renounceOwnership",
      "outputs": [],
      "stateMutability": "nonpayable",
      "type": "function"
    },
    {
      "inputs": [
        {
          "internalType": "uint256",
          "name": "_tokenId",
          "type": "uint256"
        },
        {
          "internalType": "uint256",
          "name": "_salePrice",
          "type": "uint256"
        }
      ],
      "name": "royaltyInfo",
      "outputs": [
        {
          "internalType": "address",
          "name": "",
          "type": "address"
        },
        {
          "internalType": "uint256",
          "name": "",
          "type": "uint256"
        }
      ],
      "stateMutability": "view",
      "type": "function"
    },
    {
      "inputs": [
        {
          "internalType": "address",
          "name": "from",
          "type": "address"
        },
        {
          "internalType": "address",
          "name": "to",
          "type": "address"
        },
        {
          "internalType": "uint256",
          "name": "tokenId",
          "type": "uint256"
        }
      ],
      "name": "safeTransferFrom",
      "outputs": [],
      "stateMutability": "payable",
      "type": "function"
    },
    {
      "inputs": [
        {
          "internalType": "address",
          "name": "from",
          "type": "address"
        },
        {
          "internalType": "address",
          "name": "to",
          "type": "address"
        },
        {
          "internalType": "uint256",
          "name": "tokenId",
          "type": "uint256"
        },
        {
          "internalType": "bytes",
          "name": "_data",
          "type": "bytes"
        }
      ],
      "name": "safeTransferFrom",
      "outputs": [],
      "stateMutability": "payable",
      "type": "function"
    },
    {
      "inputs": [
        {
          "internalType": "address",
          "name": "operator",
          "type": "address"
        },
        {
          "internalType": "bool",
          "name": "approved",
          "type": "bool"
        }
      ],
      "name": "setApprovalForAll",
      "outputs": [],
      "stateMutability": "nonpayable",
      "type": "function"
    },
    {
      "inputs": [],
      "name": "symbol",
      "outputs": [
        {
          "internalType": "string",
          "name": "",
          "type": "string"
        }
      ],
      "stateMutability": "view",
      "type": "function"
    },
    {
      "inputs": [
        {
          "internalType": "uint256",
          "name": "tokenId",
          "type": "uint256"
        }
      ],
      "name": "tokenURI",
      "outputs": [
        {
          "internalType": "string",
          "name": "",
          "type": "string"
        }
      ],
      "stateMutability": "view",
      "type": "function"
    },
    {
      "inputs": [
        {
          "internalType": "address",
          "name": "",
          "type": "address"
        }
      ],
      "name": "totalMints",
      "outputs": [
        {
          "internalType": "uint256",
          "name": "",
          "type": "uint256"
        }
      ],
      "stateMutability": "view",
      "type": "function"
    },
    {
      "inputs": [],
      "name": "totalSupply",
      "outputs": [
        {
          "internalType": "uint256",
          "name": "",
          "type": "uint256"
        }
      ],
      "stateMutability": "view",
      "type": "function"
    },
    {
      "inputs": [
        {
          "internalType": "address",
          "name": "from",
          "type": "address"
        },
        {
          "internalType": "address",
          "name": "to",
          "type": "address"
        },
        {
          "internalType": "uint256",
          "name": "tokenId",
          "type": "uint256"
        }
      ],
      "name": "transferFrom",
      "outputs": [],
      "stateMutability": "payable",
      "type": "function"
    },
    {
      "inputs": [
        {
          "internalType": "address",
          "name": "newOwner",
          "type": "address"
        }
      ],
      "name": "transferOwnership",
      "outputs": [],
      "stateMutability": "nonpayable",
      "type": "function"
    },
    {
      "inputs": [],
      "name": "toggleSaleOpen",
      "outputs": [],
      "stateMutability": "nonpayable",
      "type": "function"
    },
    {
      "inputs": [],
      "name": "freeMint",
      "outputs": [],
      "stateMutability": "nonpayable",
      "type": "function"
    },
    {
      "inputs": [],
      "name": "withdraw",
      "outputs": [],
      "stateMutability": "nonpayable",
      "type": "function"
    },
    {
      "inputs": [
        {
          "internalType": "bytes4",
          "name": "interfaceId",
          "type": "bytes4"
        }
      ],
      "name": "supportsInterface",
      "outputs": [
        {
          "internalType": "bool",
          "name": "",
          "type": "bool"
        }
      ],
      "stateMutability": "view",
      "type": "function"
    },
    {
      "inputs": [
        {
          "internalType": "address",
          "name": "receiver",
          "type": "address"
        },
        {
          "internalType": "uint96",
          "name": "feeNumerator",
          "type": "uint96"
        }
      ],
      "name": "setDefaultRoyalty",
      "outputs": [],
      "stateMutability": "nonpayable",
      "type": "function"
    },
    {
      "inputs": [],
      "name": "deleteDefaultRoyalty",
      "outputs": [],
      "stateMutability": "nonpayable",
      "type": "function"
    }
  ],
  "bytecode": "0x60806040523480156200001157600080fd5b506040516200373238038062003732833981810160405281019062000037919062000455565b6040518060400160405280600f81526020017f53696d706c6520436f6e747261637400000000000000000000000000000000008152506040518060400160405280600481526020017f5349434f000000000000000000000000000000000000000000000000000000008152508160029080519060200190620000bb92919062000208565b508060039080519060200190620000d492919062000208565b50620000e56200013560201b60201c565b60008190555050506200010d620001016200013a60201b60201c565b6200014260201b60201c565b6001600b8190555080600c90805190602001906200012d92919062000208565b50506200050a565b600090565b600033905090565b6000600a60009054906101000a900473ffffffffffffffffffffffffffffffffffffffff16905081600a60006101000a81548173ffffffffffffffffffffffffffffffffffffffff021916908373ffffffffffffffffffffffffffffffffffffffff1602179055508173ffffffffffffffffffffffffffffffffffffffff168173ffffffffffffffffffffffffffffffffffffffff167f8be0079c531659141344cd1fd0a4f28419497f9722a3daafe3b4186f6b6457e060405160405180910390a35050565b8280546200021690620004d5565b90600052602060002090601f0160209004810192826200023a576000855562000286565b82601f106200025557805160ff191683800117855562000286565b8280016001018555821562000286579182015b828111156200028557825182559160200191906001019062000268565b5b50905062000295919062000299565b5090565b5b80821115620002b45760008160009055506001016200029a565b5090565b6000604051905090565b600080fd5b600080fd5b600080fd5b600080fd5b6000601f19601f8301169050919050565b7f4e487b7100000000000000000000000000000000000000000000000000000000600052604160045260246000fd5b6200032182620002d6565b810181811067ffffffffffffffff82111715620003435762000342620002e7565b5b80604052505050565b600062000358620002b8565b905062000366828262000316565b919050565b600067ffffffffffffffff821115620003895762000388620002e7565b5b6200039482620002d6565b9050602081019050919050565b60005b83811015620003c1578082015181840152602081019050620003a4565b83811115620003d1576000848401525b50505050565b6000620003ee620003e8846200036b565b6200034c565b9050828152602081018484840111156200040d576200040c620002d1565b5b6200041a848285620003a1565b509392505050565b600082601f8301126200043a5762000439620002cc565b5b81516200044c848260208601620003d7565b91505092915050565b6000602082840312156200046e576200046d620002c2565b5b600082015167ffffffffffffffff8111156200048f576200048e620002c7565b5b6200049d8482850162000422565b91505092915050565b7f4e487b7100000000000000000000000000000000000000000000000000000000600052602260045260246000fd5b60006002820490506001821680620004ee57607f821691505b602082108103620005045762000503620004a6565b5b50919050565b613218806200051a6000396000f3fe60806040526004361061019c5760003560e01c806342842e0e116100ec57806395d89b411161008a578063b88d4fde11610064578063b88d4fde14610556578063c87b56dd14610572578063e985e9c5146105af578063f2fde38b146105ec5761019c565b806395d89b41146104eb578063a22cb46514610516578063aa1b103f1461053f5761019c565b806370a08231116100c657806370a0823114610455578063715018a6146104925780638393634c146104a95780638da5cb5b146104c05761019c565b806342842e0e146103e55780635b70ea9f146104015780636352211e146104185761019c565b806318160ddd1161015957806323b872dd1161013357806323b872dd146103495780632a55205a1461036557806332cb6b0c146103a35780633ccfd60b146103ce5761019c565b806318160ddd146102b65780631a081330146102e157806320863f731461030c5761019c565b806301ffc9a7146101a157806304634d8d146101de57806306fdde031461020757806307e9582014610232578063081812fc1461025d578063095ea7b31461029a575b600080fd5b3480156101ad57600080fd5b506101c860048036038101906101c391906123f2565b610615565b6040516101d5919061243a565b60405180910390f35b3480156101ea57600080fd5b50610205600480360381019061020091906124f7565b610627565b005b34801561021357600080fd5b5061021c6106b1565b60405161022991906125d0565b60405180910390f35b34801561023e57600080fd5b50610247610743565b604051610254919061260b565b60405180910390f35b34801561026957600080fd5b50610284600480360381019061027f9190612652565b610748565b604051610291919061268e565b60405180910390f35b6102b460048036038101906102af91906126a9565b6107c7565b005b3480156102c257600080fd5b506102cb61090b565b6040516102d8919061260b565b60405180910390f35b3480156102ed57600080fd5b506102f6610922565b604051610303919061243a565b60405180910390f35b34801561031857600080fd5b50610333600480360381019061032e91906126e9565b610935565b604051610340919061260b565b60405180910390f35b610363600480360381019061035e9190612716565b61094d565b005b34801561037157600080fd5b5061038c60048036038101906103879190612769565b610c6f565b60405161039a9291906127a9565b60405180910390f35b3480156103af57600080fd5b506103b8610e59565b6040516103c5919061260b565b60405180910390f35b3480156103da57600080fd5b506103e3610e5f565b005b6103ff60048036038101906103fa9190612716565b610fdf565b005b34801561040d57600080fd5b50610416610fff565b005b34801561042457600080fd5b5061043f600480360381019061043a9190612652565b611242565b60405161044c919061268e565b60405180910390f35b34801561046157600080fd5b5061047c600480360381019061047791906126e9565b611254565b604051610489919061260b565b60405180910390f35b34801561049e57600080fd5b506104a761130c565b005b3480156104b557600080fd5b506104be611394565b005b3480156104cc57600080fd5b506104d561143c565b6040516104e2919061268e565b60405180910390f35b3480156104f757600080fd5b50610500611466565b60405161050d91906125d0565b60405180910390f35b34801561052257600080fd5b5061053d600480360381019061053891906127fe565b6114f8565b005b34801561054b57600080fd5b50610554611603565b005b610570600480360381019061056b9190612973565b611689565b005b34801561057e57600080fd5b5061059960048036038101906105949190612652565b6116fc565b6040516105a691906125d0565b60405180910390f35b3480156105bb57600080fd5b506105d660048036038101906105d191906129f6565b61179a565b6040516105e3919061243a565b60405180910390f35b3480156105f857600080fd5b50610613600480360381019061060e91906126e9565b61182e565b005b600061062082611925565b9050919050565b61062f61199f565b73ffffffffffffffffffffffffffffffffffffffff1661064d61143c565b73ffffffffffffffffffffffffffffffffffffffff16146106a3576040517f08c379a000000000000000000000000000000000000000000000000000000000815260040161069a90612a82565b60405180910390fd5b6106ad82826119a7565b5050565b6060600280546106c090612ad1565b80601f01602080910402602001604051908101604052809291908181526020018280546106ec90612ad1565b80156107395780601f1061070e57610100808354040283529160200191610739565b820191906000526020600020905b81548152906001019060200180831161071c57829003601f168201915b5050505050905090565b600181565b600061075382611b3c565b610789576040517fcf4700e400000000000000000000000000000000000000000000000000000000815260040160405180910390fd5b6006600083815260200190815260200160002060000160009054906101000a900473ffffffffffffffffffffffffffffffffffffffff169050919050565b60006107d282611242565b90508073ffffffffffffffffffffffffffffffffffffffff166107f3611b9b565b73ffffffffffffffffffffffffffffffffffffffff16146108565761081f8161081a611b9b565b61179a565b610855576040517fcfb3b94200000000000000000000000000000000000000000000000000000000815260040160405180910390fd5b5b826006600084815260200190815260200160002060000160006101000a81548173ffffffffffffffffffffffffffffffffffffffff021916908373ffffffffffffffffffffffffffffffffffffffff160217905550818373ffffffffffffffffffffffffffffffffffffffff168273ffffffffffffffffffffffffffffffffffffffff167f8c5be1e5ebec7d5bd14f71427d1e84f3dd0314c0f7b2291e5b200ac8c7c3b92560405160405180910390a4505050565b6000610915611ba3565b6001546000540303905090565b600d60009054906101000a900460ff1681565b600e6020528060005260406000206000915090505481565b600061095882611ba8565b90508373ffffffffffffffffffffffffffffffffffffffff168173ffffffffffffffffffffffffffffffffffffffff16146109bf576040517fa114810000000000000000000000000000000000000000000000000000000000815260040160405180910390fd5b6000806109cb84611c74565b915091506109e181876109dc611b9b565b611c9b565b610a2d576109f6866109f1611b9b565b61179a565b610a2c576040517f59c896be00000000000000000000000000000000000000000000000000000000815260040160405180910390fd5b5b600073ffffffffffffffffffffffffffffffffffffffff168573ffffffffffffffffffffffffffffffffffffffff1603610a93576040517fea553b3400000000000000000000000000000000000000000000000000000000815260040160405180910390fd5b610aa08686866001611cdf565b8015610aab57600082555b600560008773ffffffffffffffffffffffffffffffffffffffff1673ffffffffffffffffffffffffffffffffffffffff168152602001908152602001600020600081546001900391905081905550600560008673ffffffffffffffffffffffffffffffffffffffff1673ffffffffffffffffffffffffffffffffffffffff1681526020019081526020016000206000815460010191905081905550610b7985610b55888887611ce5565b7c020000000000000000000000000000000000000000000000000000000017611d0d565b600460008681526020019081526020016000208190555060007c0200000000000000000000000000000000000000000000000000000000841603610bff5760006001850190506000600460008381526020019081526020016000205403610bfd576000548114610bfc578360046000838152602001908152602001600020819055505b5b505b838573ffffffffffffffffffffffffffffffffffffffff168773ffffffffffffffffffffffffffffffffffffffff167fddf252ad1be2c89b69c2b068fc378daa952ba7f163c4a11628f55a4df523b3ef60405160405180910390a4610c678686866001611d38565b505050505050565b6000806000600960008681526020019081526020016000206040518060400160405290816000820160009054906101000a900473ffffffffffffffffffffffffffffffffffffffff1673ffffffffffffffffffffffffffffffffffffffff1673ffffffffffffffffffffffffffffffffffffffff1681526020016000820160149054906101000a90046bffffffffffffffffffffffff166bffffffffffffffffffffffff166bffffffffffffffffffffffff16815250509050600073ffffffffffffffffffffffffffffffffffffffff16816000015173ffffffffffffffffffffffffffffffffffffffff1603610e045760086040518060400160405290816000820160009054906101000a900473ffffffffffffffffffffffffffffffffffffffff1673ffffffffffffffffffffffffffffffffffffffff1673ffffffffffffffffffffffffffffffffffffffff1681526020016000820160149054906101000a90046bffffffffffffffffffffffff166bffffffffffffffffffffffff166bffffffffffffffffffffffff168152505090505b6000610e0e611d3e565b6bffffffffffffffffffffffff1682602001516bffffffffffffffffffffffff1686610e3a9190612b31565b610e449190612bba565b90508160000151819350935050509250929050565b61271081565b610e6761199f565b73ffffffffffffffffffffffffffffffffffffffff16610e8561143c565b73ffffffffffffffffffffffffffffffffffffffff1614610edb576040517f08c379a0000000000000000000000000000000000000000000000000000000008152600401610ed290612a82565b60405180910390fd5b6002600b5403610f20576040517f08c379a0000000000000000000000000000000000000000000000000000000008152600401610f1790612c37565b60405180910390fd5b6002600b8190555060003373ffffffffffffffffffffffffffffffffffffffff1647604051610f4e90612c88565b60006040518083038185875af1925050503d8060008114610f8b576040519150601f19603f3d011682016040523d82523d6000602084013e610f90565b606091505b5050905080610fd4576040517f08c379a0000000000000000000000000000000000000000000000000000000008152600401610fcb90612ce9565b60405180910390fd5b506001600b81905550565b610ffa83838360405180602001604052806000815250611689565b505050565b3373ffffffffffffffffffffffffffffffffffffffff163273ffffffffffffffffffffffffffffffffffffffff161461106d576040517f08c379a000000000000000000000000000000000000000000000000000000000815260040161106490612d55565b60405180910390fd5b6002600b54036110b2576040517f08c379a00000000000000000000000000000000000000000000000000000000081526004016110a990612c37565b60405180910390fd5b6002600b81905550600d60009054906101000a900460ff16611109576040517f08c379a000000000000000000000000000000000000000000000000000000000815260040161110090612dc1565b60405180910390fd5b61111161090b565b61271011611154576040517f08c379a000000000000000000000000000000000000000000000000000000000815260040161114b90612e2d565b60405180910390fd5b6001600e60003373ffffffffffffffffffffffffffffffffffffffff1673ffffffffffffffffffffffffffffffffffffffff16815260200190815260200160002054106111d6576040517f08c379a00000000000000000000000000000000000000000000000000000000081526004016111cd90612e99565b60405180910390fd5b6111e1336001611d48565b6001600e60003373ffffffffffffffffffffffffffffffffffffffff1673ffffffffffffffffffffffffffffffffffffffff16815260200190815260200160002060008282546112319190612eb9565b925050819055506001600b81905550565b600061124d82611ba8565b9050919050565b60008073ffffffffffffffffffffffffffffffffffffffff168273ffffffffffffffffffffffffffffffffffffffff16036112bb576040517f8f4eb60400000000000000000000000000000000000000000000000000000000815260040160405180910390fd5b67ffffffffffffffff600560008473ffffffffffffffffffffffffffffffffffffffff1673ffffffffffffffffffffffffffffffffffffffff16815260200190815260200160002054169050919050565b61131461199f565b73ffffffffffffffffffffffffffffffffffffffff1661133261143c565b73ffffffffffffffffffffffffffffffffffffffff1614611388576040517f08c379a000000000000000000000000000000000000000000000000000000000815260040161137f90612a82565b60405180910390fd5b6113926000611d66565b565b61139c61199f565b73ffffffffffffffffffffffffffffffffffffffff166113ba61143c565b73ffffffffffffffffffffffffffffffffffffffff1614611410576040517f08c379a000000000000000000000000000000000000000000000000000000000815260040161140790612a82565b60405180910390fd5b600d60009054906101000a900460ff1615600d60006101000a81548160ff021916908315150217905550565b6000600a60009054906101000a900473ffffffffffffffffffffffffffffffffffffffff16905090565b60606003805461147590612ad1565b80601f01602080910402602001604051908101604052809291908181526020018280546114a190612ad1565b80156114ee5780601f106114c3576101008083540402835291602001916114ee565b820191906000526020600020905b8154815290600101906020018083116114d157829003601f168201915b5050505050905090565b8060076000611505611b9b565b73ffffffffffffffffffffffffffffffffffffffff1673ffffffffffffffffffffffffffffffffffffffff16815260200190815260200160002060008473ffffffffffffffffffffffffffffffffffffffff1673ffffffffffffffffffffffffffffffffffffffff16815260200190815260200160002060006101000a81548160ff0219169083151502179055508173ffffffffffffffffffffffffffffffffffffffff166115b2611b9b565b73ffffffffffffffffffffffffffffffffffffffff167f17307eab39ab6107e8899845ad3d59bd9653f200f220920489ca2b5937696c31836040516115f7919061243a565b60405180910390a35050565b61160b61199f565b73ffffffffffffffffffffffffffffffffffffffff1661162961143c565b73ffffffffffffffffffffffffffffffffffffffff161461167f576040517f08c379a000000000000000000000000000000000000000000000000000000000815260040161167690612a82565b60405180910390fd5b611687611e2c565b565b61169484848461094d565b60008373ffffffffffffffffffffffffffffffffffffffff163b146116f6576116bf84848484611e79565b6116f5576040517fd1a57ed600000000000000000000000000000000000000000000000000000000815260040160405180910390fd5b5b50505050565b606061170782611b3c565b61173d576040517fa14c4b5000000000000000000000000000000000000000000000000000000000815260040160405180910390fd5b6000611747611fc9565b905060008151036117675760405180602001604052806000815250611792565b806117718461205b565b604051602001611782929190612f4b565b6040516020818303038152906040525b915050919050565b6000600760008473ffffffffffffffffffffffffffffffffffffffff1673ffffffffffffffffffffffffffffffffffffffff16815260200190815260200160002060008373ffffffffffffffffffffffffffffffffffffffff1673ffffffffffffffffffffffffffffffffffffffff16815260200190815260200160002060009054906101000a900460ff16905092915050565b61183661199f565b73ffffffffffffffffffffffffffffffffffffffff1661185461143c565b73ffffffffffffffffffffffffffffffffffffffff16146118aa576040517f08c379a00000000000000000000000000000000000000000000000000000000081526004016118a190612a82565b60405180910390fd5b600073ffffffffffffffffffffffffffffffffffffffff168173ffffffffffffffffffffffffffffffffffffffff1603611919576040517f08c379a000000000000000000000000000000000000000000000000000000000815260040161191090612fe1565b60405180910390fd5b61192281611d66565b50565b60007f2a55205a000000000000000000000000000000000000000000000000000000007bffffffffffffffffffffffffffffffffffffffffffffffffffffffff1916827bffffffffffffffffffffffffffffffffffffffffffffffffffffffff191614806119985750611997826120ab565b5b9050919050565b600033905090565b6119af611d3e565b6bffffffffffffffffffffffff16816bffffffffffffffffffffffff161115611a0d576040517f08c379a0000000000000000000000000000000000000000000000000000000008152600401611a0490613073565b60405180910390fd5b600073ffffffffffffffffffffffffffffffffffffffff168273ffffffffffffffffffffffffffffffffffffffff1603611a7c576040517f08c379a0000000000000000000000000000000000000000000000000000000008152600401611a73906130df565b60405180910390fd5b60405180604001604052808373ffffffffffffffffffffffffffffffffffffffff168152602001826bffffffffffffffffffffffff16815250600860008201518160000160006101000a81548173ffffffffffffffffffffffffffffffffffffffff021916908373ffffffffffffffffffffffffffffffffffffffff16021790555060208201518160000160146101000a8154816bffffffffffffffffffffffff02191690836bffffffffffffffffffffffff1602179055509050505050565b600081611b47611ba3565b11158015611b56575060005482105b8015611b94575060007c0100000000000000000000000000000000000000000000000000000000600460008581526020019081526020016000205416145b9050919050565b600033905090565b600090565b60008082905080611bb7611ba3565b11611c3d57600054811015611c3c5760006004600083815260200190815260200160002054905060007c0100000000000000000000000000000000000000000000000000000000821603611c3a575b60008103611c30576004600083600190039350838152602001908152602001600020549050611c06565b8092505050611c6f565b505b5b6040517fdf2d9b4200000000000000000000000000000000000000000000000000000000815260040160405180910390fd5b919050565b60008060006006600085815260200190815260200160002090508092508254915050915091565b600073ffffffffffffffffffffffffffffffffffffffff8316925073ffffffffffffffffffffffffffffffffffffffff821691508382148383141790509392505050565b50505050565b60008060e883901c905060e8611cfc868684612115565b62ffffff16901b9150509392505050565b600073ffffffffffffffffffffffffffffffffffffffff83169250814260a01b178317905092915050565b50505050565b6000612710905090565b611d6282826040518060200160405280600081525061211e565b5050565b6000600a60009054906101000a900473ffffffffffffffffffffffffffffffffffffffff16905081600a60006101000a81548173ffffffffffffffffffffffffffffffffffffffff021916908373ffffffffffffffffffffffffffffffffffffffff1602179055508173ffffffffffffffffffffffffffffffffffffffff168173ffffffffffffffffffffffffffffffffffffffff167f8be0079c531659141344cd1fd0a4f28419497f9722a3daafe3b4186f6b6457e060405160405180910390a35050565b6008600080820160006101000a81549073ffffffffffffffffffffffffffffffffffffffff02191690556000820160146101000a8154906bffffffffffffffffffffffff02191690555050565b60008373ffffffffffffffffffffffffffffffffffffffff1663150b7a02611e9f611b9b565b8786866040518563ffffffff1660e01b8152600401611ec19493929190613154565b6020604051808303816000875af1925050508015611efd57506040513d601f19601f82011682018060405250810190611efa91906131b5565b60015b611f76573d8060008114611f2d576040519150601f19603f3d011682016040523d82523d6000602084013e611f32565b606091505b506000815103611f6e576040517fd1a57ed600000000000000000000000000000000000000000000000000000000815260040160405180910390fd5b805181602001fd5b63150b7a0260e01b7bffffffffffffffffffffffffffffffffffffffffffffffffffffffff1916817bffffffffffffffffffffffffffffffffffffffffffffffffffffffff191614915050949350505050565b6060600c8054611fd890612ad1565b80601f016020809104026020016040519081016040528092919081815260200182805461200490612ad1565b80156120515780601f1061202657610100808354040283529160200191612051565b820191906000526020600020905b81548152906001019060200180831161203457829003601f168201915b5050505050905090565b606060a060405101806040526020810391506000825281835b60011561209657600184039350600a81066030018453600a8104905080612074575b50828103602084039350808452505050919050565b60007f01ffc9a7000000000000000000000000000000000000000000000000000000007bffffffffffffffffffffffffffffffffffffffffffffffffffffffff1916827bffffffffffffffffffffffffffffffffffffffffffffffffffffffff1916149050919050565b60009392505050565b61212883836121bb565b60008373ffffffffffffffffffffffffffffffffffffffff163b146121b657600080549050600083820390505b6121686000868380600101945086611e79565b61219e576040517fd1a57ed600000000000000000000000000000000000000000000000000000000815260040160405180910390fd5b8181106121555781600054146121b357600080fd5b50505b505050565b600080549050600082036121fb576040517fb562e8dd00000000000000000000000000000000000000000000000000000000815260040160405180910390fd5b6122086000848385611cdf565b600160406001901b178202600560008573ffffffffffffffffffffffffffffffffffffffff1673ffffffffffffffffffffffffffffffffffffffff1681526020019081526020016000206000828254019250508190555061227f836122706000866000611ce5565b61227985612376565b17611d0d565b6004600083815260200190815260200160002081905550600080838301905073ffffffffffffffffffffffffffffffffffffffff85169150828260007fddf252ad1be2c89b69c2b068fc378daa952ba7f163c4a11628f55a4df523b3ef600080a4600183015b81811461232057808360007fddf252ad1be2c89b69c2b068fc378daa952ba7f163c4a11628f55a4df523b3ef600080a46001810190506122e5565b506000820361235b576040517f2e07630000000000000000000000000000000000000000000000000000000000815260040160405180910390fd5b8060008190555050506123716000848385611d38565b505050565b60006001821460e11b9050919050565b6000604051905090565b600080fd5b600080fd5b60007fffffffff0000000000000000000000000000000000000000000000000000000082169050919050565b6123cf8161239a565b81146123da57600080fd5b50565b6000813590506123ec816123c6565b92915050565b60006020828403121561240857612407612390565b5b6000612416848285016123dd565b91505092915050565b60008115159050919050565b6124348161241f565b82525050565b600060208201905061244f600083018461242b565b92915050565b600073ffffffffffffffffffffffffffffffffffffffff82169050919050565b600061248082612455565b9050919050565b61249081612475565b811461249b57600080fd5b50565b6000813590506124ad81612487565b92915050565b60006bffffffffffffffffffffffff82169050919050565b6124d4816124b3565b81146124df57600080fd5b50565b6000813590506124f1816124cb565b92915050565b6000806040838503121561250e5761250d612390565b5b600061251c8582860161249e565b925050602061252d858286016124e2565b9150509250929050565b600081519050919050565b600082825260208201905092915050565b60005b83811015612571578082015181840152602081019050612556565b83811115612580576000848401525b50505050565b6000601f19601f8301169050919050565b60006125a282612537565b6125ac8185612542565b93506125bc818560208601612553565b6125c581612586565b840191505092915050565b600060208201905081810360008301526125ea8184612597565b905092915050565b6000819050919050565b612605816125f2565b82525050565b600060208201905061262060008301846125fc565b92915050565b61262f816125f2565b811461263a57600080fd5b50565b60008135905061264c81612626565b92915050565b60006020828403121561266857612667612390565b5b60006126768482850161263d565b91505092915050565b61268881612475565b82525050565b60006020820190506126a3600083018461267f565b92915050565b600080604083850312156126c0576126bf612390565b5b60006126ce8582860161249e565b92505060206126df8582860161263d565b9150509250929050565b6000602082840312156126ff576126fe612390565b5b600061270d8482850161249e565b91505092915050565b60008060006060848603121561272f5761272e612390565b5b600061273d8682870161249e565b935050602061274e8682870161249e565b925050604061275f8682870161263d565b9150509250925092565b600080604083850312156127805761277f612390565b5b600061278e8582860161263d565b925050602061279f8582860161263d565b9150509250929050565b60006040820190506127be600083018561267f565b6127cb60208301846125fc565b9392505050565b6127db8161241f565b81146127e657600080fd5b50565b6000813590506127f8816127d2565b92915050565b6000806040838503121561281557612814612390565b5b60006128238582860161249e565b9250506020612834858286016127e9565b9150509250929050565b600080fd5b600080fd5b7f4e487b7100000000000000000000000000000000000000000000000000000000600052604160045260246000fd5b61288082612586565b810181811067ffffffffffffffff8211171561289f5761289e612848565b5b80604052505050565b60006128b2612386565b90506128be8282612877565b919050565b600067ffffffffffffffff8211156128de576128dd612848565b5b6128e782612586565b9050602081019050919050565b82818337600083830152505050565b6000612916612911846128c3565b6128a8565b90508281526020810184848401111561293257612931612843565b5b61293d8482856128f4565b509392505050565b600082601f83011261295a5761295961283e565b5b813561296a848260208601612903565b91505092915050565b6000806000806080858703121561298d5761298c612390565b5b600061299b8782880161249e565b94505060206129ac8782880161249e565b93505060406129bd8782880161263d565b925050606085013567ffffffffffffffff8111156129de576129dd612395565b5b6129ea87828801612945565b91505092959194509250565b60008060408385031215612a0d57612a0c612390565b5b6000612a1b8582860161249e565b9250506020612a2c8582860161249e565b9150509250929050565b7f4f776e61626c653a2063616c6c6572206973206e6f7420746865206f776e6572600082015250565b6000612a6c602083612542565b9150612a7782612a36565b602082019050919050565b60006020820190508181036000830152612a9b81612a5f565b9050919050565b7f4e487b7100000000000000000000000000000000000000000000000000000000600052602260045260246000fd5b60006002820490506001821680612ae957607f821691505b602082108103612afc57612afb612aa2565b5b50919050565b7f4e487b7100000000000000000000000000000000000000000000000000000000600052601160045260246000fd5b6000612b3c826125f2565b9150612b47836125f2565b9250817fffffffffffffffffffffffffffffffffffffffffffffffffffffffffffffffff0483118215151615612b8057612b7f612b02565b5b828202905092915050565b7f4e487b7100000000000000000000000000000000000000000000000000000000600052601260045260246000fd5b6000612bc5826125f2565b9150612bd0836125f2565b925082612be057612bdf612b8b565b5b828204905092915050565b7f5265656e7472616e637947756172643a207265656e7472616e742063616c6c00600082015250565b6000612c21601f83612542565b9150612c2c82612beb565b602082019050919050565b60006020820190508181036000830152612c5081612c14565b9050919050565b600081905092915050565b50565b6000612c72600083612c57565b9150612c7d82612c62565b600082019050919050565b6000612c9382612c65565b9150819050919050565b7f5472616e73666572206661696c65640000000000000000000000000000000000600082015250565b6000612cd3600f83612542565b9150612cde82612c9d565b602082019050919050565b60006020820190508181036000830152612d0281612cc6565b9050919050565b7f43616e6e6f742062652063616c6c6564206279206120636f6e74726163740000600082015250565b6000612d3f601e83612542565b9150612d4a82612d09565b602082019050919050565b60006020820190508181036000830152612d6e81612d32565b9050919050565b7f53616c65206e6f74206f70656e00000000000000000000000000000000000000600082015250565b6000612dab600d83612542565b9150612db682612d75565b602082019050919050565b60006020820190508181036000830152612dda81612d9e565b9050919050565b7f536f6c64206f7574000000000000000000000000000000000000000000000000600082015250565b6000612e17600883612542565b9150612e2282612de1565b602082019050919050565b60006020820190508181036000830152612e4681612e0a565b9050919050565b7f4f6e6c79206f6e652066726565206d696e74207065722077616c6c6574000000600082015250565b6000612e83601d83612542565b9150612e8e82612e4d565b602082019050919050565b60006020820190508181036000830152612eb281612e76565b9050919050565b6000612ec4826125f2565b9150612ecf836125f2565b9250827fffffffffffffffffffffffffffffffffffffffffffffffffffffffffffffffff03821115612f0457612f03612b02565b5b828201905092915050565b600081905092915050565b6000612f2582612537565b612f2f8185612f0f565b9350612f3f818560208601612553565b80840191505092915050565b6000612f578285612f1a565b9150612f638284612f1a565b91508190509392505050565b7f4f776e61626c653a206e6577206f776e657220697320746865207a65726f206160008201527f6464726573730000000000000000000000000000000000000000000000000000602082015250565b6000612fcb602683612542565b9150612fd682612f6f565b604082019050919050565b60006020820190508181036000830152612ffa81612fbe565b9050919050565b7f455243323938313a20726f79616c7479206665652077696c6c2065786365656460008201527f2073616c65507269636500000000000000000000000000000000000000000000602082015250565b600061305d602a83612542565b915061306882613001565b604082019050919050565b6000602082019050818103600083015261308c81613050565b9050919050565b7f455243323938313a20696e76616c696420726563656976657200000000000000600082015250565b60006130c9601983612542565b91506130d482613093565b602082019050919050565b600060208201905081810360008301526130f8816130bc565b9050919050565b600081519050919050565b600082825260208201905092915050565b6000613126826130ff565b613130818561310a565b9350613140818560208601612553565b61314981612586565b840191505092915050565b6000608082019050613169600083018761267f565b613176602083018661267f565b61318360408301856125fc565b8181036060830152613195818461311b565b905095945050505050565b6000815190506131af816123c6565b92915050565b6000602082840312156131cb576131ca612390565b5b60006131d9848285016131a0565b9150509291505056fea2646970667358221220d3f59446fa9b875ceeae4c4d57c29b252d8dd2c6413a364ff0f72c69c8af672964736f6c634300080d0033",
  "immutableReferences": {},
  "source": "\n    pragma solidity ^0.8.7;\n\n    import \"@openzeppelin/contracts/security/ReentrancyGuard.sol\";\n    import \"@openzeppelin/contracts/access/Ownable.sol\";\n    import \"@openzeppelin/contracts/token/common/ERC2981.sol\";\n    import \"erc721a/contracts/ERC721A.sol\";\n\n    contract SimpleContract is ERC721A, ERC2981, Ownable, ReentrancyGuard {\n\n        uint256 public constant MAX_SUPPLY = 10000;\n        uint256 public constant MAX_MINTS_WALLET = 1;\n\n        string private _baseTokenURI;\n\n        bool public isSaleOpen;\n\n        mapping (address => uint256) public totalMints;\n\n        constructor(string memory tokenData) ERC721A(\"Simple Contract\", \"SICO\") {\n            _baseTokenURI = tokenData;\n        }    \n\n        function toggleSaleOpen() external onlyOwner {\n            isSaleOpen = !isSaleOpen;\n        }\n\n        modifier callerIsUser() {\n            require(tx.origin == msg.sender, \"Cannot be called by a contract\");\n            _;\n        }\n\n        function freeMint() external callerIsUser nonReentrant {\n            require(isSaleOpen, \"Sale not open\");\n            require(MAX_SUPPLY > totalSupply(), \"Sold out\");\n            require((totalMints[msg.sender]) < MAX_MINTS_WALLET, \"Only one free mint per wallet\");\n            _safeMint(msg.sender, 1);\n            totalMints[msg.sender] += 1;\n        }\n\n        function _baseURI() internal view virtual override returns (string memory) {\n            return _baseTokenURI;\n        }\n\n        function withdraw() external onlyOwner nonReentrant {\n            (bool success, ) = msg.sender.call{value: address(this).balance}(\"\");\n            require(success, \"Transfer failed\");\n        }\n\n        // ERC2981 functions\n\n        // @dev Required override\n        function supportsInterface(bytes4 interfaceId) public view virtual override(ERC721A, ERC2981) returns (bool) {\n            return super.supportsInterface(interfaceId);\n        }\n\n        function setDefaultRoyalty(address receiver, uint96 feeNumerator) external onlyOwner {\n            _setDefaultRoyalty(receiver, feeNumerator);\n        }\n\n        function deleteDefaultRoyalty() external onlyOwner {\n            _deleteDefaultRoyalty();\n        }\n    }",
  "sourcePath": "/home/rowla/oeo/contracts/NFTCollection.sol",
  "compiler": {
    "name": "solc",
    "version": "0.8.13+commit.abaa5c0e.Emscripten.clang"
  },
  "schemaVersion": "3.4.3",
  "updatedAt": "2022-11-17T19:24:09.457Z",
  "devdoc": {
    "kind": "dev",
    "methods": {
      "approve(address,uint256)": {
        "details": "Gives permission to `to` to transfer `tokenId` token to another account. The approval is cleared when the token is transferred. Only a single account can be approved at a time, so approving the zero address clears previous approvals. Requirements: - The caller must own the token or be an approved operator. - `tokenId` must exist. Emits an {Approval} event."
      },
      "balanceOf(address)": {
        "details": "Returns the number of tokens in `owner`'s account."
      },
      "getApproved(uint256)": {
        "details": "Returns the account approved for `tokenId` token. Requirements: - `tokenId` must exist."
      },
      "isApprovedForAll(address,address)": {
        "details": "Returns if the `operator` is allowed to manage all of the assets of `owner`. See {setApprovalForAll}."
      },
      "name()": {
        "details": "Returns the token collection name."
      },
      "owner()": {
        "details": "Returns the address of the current owner."
      },
      "ownerOf(uint256)": {
        "details": "Returns the owner of the `tokenId` token. Requirements: - `tokenId` must exist."
      },
      "renounceOwnership()": {
        "details": "Leaves the contract without owner. It will not be possible to call `onlyOwner` functions anymore. Can only be called by the current owner. NOTE: Renouncing ownership will leave the contract without an owner, thereby removing any functionality that is only available to the owner."
      },
      "royaltyInfo(uint256,uint256)": {
        "details": "Returns how much royalty is owed and to whom, based on a sale price that may be denominated in any unit of exchange. The royalty amount is denominated and should be paid in that same unit of exchange."
      },
      "safeTransferFrom(address,address,uint256)": {
        "details": "Equivalent to `safeTransferFrom(from, to, tokenId, '')`."
      },
      "safeTransferFrom(address,address,uint256,bytes)": {
        "details": "Safely transfers `tokenId` token from `from` to `to`. Requirements: - `from` cannot be the zero address. - `to` cannot be the zero address. - `tokenId` token must exist and be owned by `from`. - If the caller is not `from`, it must be approved to move this token by either {approve} or {setApprovalForAll}. - If `to` refers to a smart contract, it must implement {IERC721Receiver-onERC721Received}, which is called upon a safe transfer. Emits a {Transfer} event."
      },
      "setApprovalForAll(address,bool)": {
        "details": "Approve or remove `operator` as an operator for the caller. Operators can call {transferFrom} or {safeTransferFrom} for any token owned by the caller. Requirements: - The `operator` cannot be the caller. Emits an {ApprovalForAll} event."
      },
      "symbol()": {
        "details": "Returns the token collection symbol."
      },
      "tokenURI(uint256)": {
        "details": "Returns the Uniform Resource Identifier (URI) for `tokenId` token."
      },
      "totalSupply()": {
        "details": "Returns the total number of tokens in existence. Burned tokens will reduce the count. To get the total number of tokens minted, please see {_totalMinted}."
      },
      "transferFrom(address,address,uint256)": {
        "details": "Transfers `tokenId` from `from` to `to`. Requirements: - `from` cannot be the zero address. - `to` cannot be the zero address. - `tokenId` token must be owned by `from`. - If the caller is not `from`, it must be approved to move this token by either {approve} or {setApprovalForAll}. Emits a {Transfer} event."
      },
      "transferOwnership(address)": {
        "details": "Transfers ownership of the contract to a new account (`newOwner`). Can only be called by the current owner."
      }
    },
    "version": 1
  },
  "userdoc": {
    "errors": {
      "ApprovalCallerNotOwnerNorApproved()": [
        {
          "notice": "The caller must own the token or be an approved operator."
        }
      ],
      "ApprovalQueryForNonexistentToken()": [
        {
          "notice": "The token does not exist."
        }
      ],
      "BalanceQueryForZeroAddress()": [
        {
          "notice": "Cannot query the balance for the zero address."
        }
      ],
      "MintERC2309QuantityExceedsLimit()": [
        {
          "notice": "The `quantity` minted with ERC2309 exceeds the safety limit."
        }
      ],
      "MintToZeroAddress()": [
        {
          "notice": "Cannot mint to the zero address."
        }
      ],
      "MintZeroQuantity()": [
        {
          "notice": "The quantity of tokens minted must be more than zero."
        }
      ],
      "OwnerQueryForNonexistentToken()": [
        {
          "notice": "The token does not exist."
        }
      ],
      "OwnershipNotInitializedForExtraData()": [
        {
          "notice": "The `extraData` cannot be set on an unintialized ownership slot."
        }
      ],
      "TransferCallerNotOwnerNorApproved()": [
        {
          "notice": "The caller must own the token or be an approved operator."
        }
      ],
      "TransferFromIncorrectOwner()": [
        {
          "notice": "The token must be owned by `from`."
        }
      ],
      "TransferToNonERC721ReceiverImplementer()": [
        {
          "notice": "Cannot safely transfer to a contract that does not implement the ERC721Receiver interface."
        }
      ],
      "TransferToZeroAddress()": [
        {
          "notice": "Cannot transfer to the zero address."
        }
      ],
      "URIQueryForNonexistentToken()": [
        {
          "notice": "The token does not exist."
        }
      ]
    },
    "kind": "user",
    "methods": {},
    "version": 1
  }
}